{
  "contractName": "ColdStaking",
  "abi": [
    {
      "constant": true,
      "inputs": [],
      "name": "CS_frozen",
      "outputs": [
        {
          "name": "",
          "type": "bool"
        }
      ],
      "payable": false,
      "stateMutability": "view",
      "type": "function"
    },
    {
      "constant": true,
      "inputs": [],
      "name": "TotalStakingWeight",
      "outputs": [
        {
          "name": "",
          "type": "uint256"
        }
      ],
      "payable": false,
      "stateMutability": "view",
      "type": "function"
    },
    {
      "constant": true,
      "inputs": [],
      "name": "StakingRewardPool",
      "outputs": [
        {
          "name": "",
          "type": "uint256"
        }
      ],
      "payable": false,
      "stateMutability": "view",
      "type": "function"
    },
    {
      "constant": true,
      "inputs": [],
      "name": "Treasury",
      "outputs": [
        {
          "name": "",
          "type": "address"
        }
      ],
      "payable": false,
      "stateMutability": "view",
      "type": "function"
    },
    {
      "constant": true,
      "inputs": [],
      "name": "staking_threshold",
      "outputs": [
        {
          "name": "",
          "type": "uint256"
        }
      ],
      "payable": false,
      "stateMutability": "view",
      "type": "function"
    },
    {
      "constant": true,
      "inputs": [],
      "name": "round_interval",
      "outputs": [
        {
          "name": "",
          "type": "uint256"
        }
      ],
      "payable": false,
      "stateMutability": "view",
      "type": "function"
    },
    {
      "constant": true,
      "inputs": [
        {
          "name": "",
          "type": "address"
        }
      ],
      "name": "staker",
      "outputs": [
        {
          "name": "amount",
          "type": "uint256"
        },
        {
          "name": "time",
          "type": "uint256"
        }
      ],
      "payable": false,
      "stateMutability": "view",
      "type": "function"
    },
    {
      "constant": true,
      "inputs": [],
      "name": "DateStartStaking",
      "outputs": [
        {
          "name": "",
          "type": "uint256"
        }
      ],
      "payable": false,
      "stateMutability": "view",
      "type": "function"
    },
    {
      "constant": true,
      "inputs": [],
      "name": "TotalStakingAmount",
      "outputs": [
        {
          "name": "",
          "type": "uint256"
        }
      ],
      "payable": false,
      "stateMutability": "view",
      "type": "function"
    },
    {
      "constant": true,
      "inputs": [],
      "name": "LastBlock",
      "outputs": [
        {
          "name": "",
          "type": "uint256"
        }
      ],
      "payable": false,
      "stateMutability": "view",
      "type": "function"
    },
    {
      "constant": true,
      "inputs": [],
      "name": "max_delay",
      "outputs": [
        {
          "name": "",
          "type": "uint256"
        }
      ],
      "payable": false,
      "stateMutability": "view",
      "type": "function"
    },
    {
      "constant": true,
      "inputs": [],
      "name": "Timestamp",
      "outputs": [
        {
          "name": "",
          "type": "uint256"
        }
      ],
      "payable": false,
      "stateMutability": "view",
      "type": "function"
    },
    {
      "payable": true,
      "stateMutability": "payable",
      "type": "fallback"
    },
    {
      "anonymous": false,
      "inputs": [
        {
          "indexed": false,
          "name": "addr",
          "type": "address"
        },
        {
          "indexed": false,
          "name": "value",
          "type": "uint256"
        },
        {
          "indexed": false,
          "name": "amount",
          "type": "uint256"
        },
        {
          "indexed": false,
          "name": "time",
          "type": "uint256"
        }
      ],
      "name": "StartStaking",
      "type": "event"
    },
    {
      "anonymous": false,
      "inputs": [
        {
          "indexed": false,
          "name": "staker",
          "type": "address"
        },
        {
          "indexed": false,
          "name": "amount",
          "type": "uint256"
        }
      ],
      "name": "WithdrawStake",
      "type": "event"
    },
    {
      "anonymous": false,
      "inputs": [
        {
          "indexed": false,
          "name": "staker",
          "type": "address"
        },
        {
          "indexed": false,
          "name": "reward",
          "type": "uint256"
        }
      ],
      "name": "Claim",
      "type": "event"
    },
    {
      "anonymous": false,
      "inputs": [
        {
          "indexed": false,
          "name": "_address",
          "type": "address"
        },
        {
          "indexed": false,
          "name": "value",
          "type": "uint256"
        }
      ],
      "name": "DonationDeposited",
      "type": "event"
    },
    {
      "constant": false,
      "inputs": [
        {
          "name": "_f",
          "type": "bool"
        }
      ],
      "name": "freeze",
      "outputs": [],
      "payable": false,
      "stateMutability": "nonpayable",
      "type": "function"
    },
    {
      "constant": false,
      "inputs": [],
      "name": "withdraw_rewards",
      "outputs": [],
      "payable": false,
      "stateMutability": "nonpayable",
      "type": "function"
    },
    {
      "constant": false,
      "inputs": [],
      "name": "clear_treasurer",
      "outputs": [],
      "payable": false,
      "stateMutability": "nonpayable",
      "type": "function"
    },
    {
      "constant": false,
      "inputs": [],
      "name": "new_block",
      "outputs": [],
      "payable": false,
      "stateMutability": "nonpayable",
      "type": "function"
    },
    {
      "constant": false,
      "inputs": [],
      "name": "start_staking",
      "outputs": [],
      "payable": true,
      "stateMutability": "payable",
      "type": "function"
    },
    {
      "constant": false,
      "inputs": [],
      "name": "DEBUG_donation",
      "outputs": [],
      "payable": true,
      "stateMutability": "payable",
      "type": "function"
    },
    {
      "constant": false,
      "inputs": [],
      "name": "withdraw_stake",
      "outputs": [],
      "payable": false,
      "stateMutability": "nonpayable",
      "type": "function"
    },
    {
      "constant": false,
      "inputs": [],
      "name": "claim",
      "outputs": [],
      "payable": false,
      "stateMutability": "nonpayable",
      "type": "function"
    },
    {
      "constant": true,
      "inputs": [
        {
          "name": "_addr",
          "type": "address"
        }
      ],
      "name": "stake_reward",
      "outputs": [
        {
          "name": "",
          "type": "uint256"
        }
      ],
      "payable": false,
      "stateMutability": "view",
      "type": "function"
    },
    {
      "constant": false,
      "inputs": [
        {
          "name": "_addr",
          "type": "address"
        }
      ],
      "name": "report_abuse",
      "outputs": [],
      "payable": false,
      "stateMutability": "nonpayable",
      "type": "function"
    }
  ],
  "bytecode": "0x608060405243600055426001556000600655610e1060075562093a80600855635bcc9b7860095573627306090abab3a6e1400e9345bc60c78a8bef57600a60006101000a81548173ffffffffffffffffffffffffffffffffffffffff021916908373ffffffffffffffffffffffffffffffffffffffff16021790555034801561008757600080fd5b506117ba806100976000396000f300608060405260043610610128576000357c0100000000000000000000000000000000000000000000000000000000900463ffffffff16806304eba77a1461013257806314657ef0146101615780631e37de4c1461018c5780631f288efb146101b75780633a339a4c146101c15780634e71d92d146101cb578063563df32f146101e25780635c854aa9146102395780637157c1131461026457806382e4eda41461028f578063a070ecb6146102ed578063aaee69d914610318578063b01ddc191461035b578063b3fefcf514610372578063b43e92fa1461039d578063b5bf15e5146103c8578063bf92b4ef146103f7578063c20a59971461044e578063cd94885514610465578063e2d405681461047c578063e6369e41146104a7578063ff5987a3146104d2575b6101306104e9565b005b34801561013e57600080fd5b50610147610893565b604051808215151515815260200191505060405180910390f35b34801561016d57600080fd5b506101766108a6565b6040518082815260200191505060405180910390f35b34801561019857600080fd5b506101a16108ac565b6040518082815260200191505060405180910390f35b6101bf6104e9565b005b6101c96108b2565b005b3480156101d757600080fd5b506101e061091f565b005b3480156101ee57600080fd5b506101f7610c2d565b604051808273ffffffffffffffffffffffffffffffffffffffff1673ffffffffffffffffffffffffffffffffffffffff16815260200191505060405180910390f35b34801561024557600080fd5b5061024e610c53565b6040518082815260200191505060405180910390f35b34801561027057600080fd5b50610279610c59565b6040518082815260200191505060405180910390f35b34801561029b57600080fd5b506102d0600480360381019080803573ffffffffffffffffffffffffffffffffffffffff169060200190929190505050610c5f565b604051808381526020018281526020019250505060405180910390f35b3480156102f957600080fd5b50610302610c83565b6040518082815260200191505060405180910390f35b34801561032457600080fd5b50610359600480360381019080803573ffffffffffffffffffffffffffffffffffffffff169060200190929190505050610c89565b005b34801561036757600080fd5b50610370610f10565b005b34801561037e57600080fd5b50610387610fc1565b6040518082815260200191505060405180910390f35b3480156103a957600080fd5b506103b2610fc7565b6040518082815260200191505060405180910390f35b3480156103d457600080fd5b506103f5600480360381019080803515159060200190929190505050610fcd565b005b34801561040357600080fd5b50610438600480360381019080803573ffffffffffffffffffffffffffffffffffffffff169060200190929190505050611046565b6040518082815260200191505060405180910390f35b34801561045a57600080fd5b50610463611236565b005b34801561047157600080fd5b5061047a611347565b005b34801561048857600080fd5b50610491611622565b6040518082815260200191505060405180910390f35b3480156104b357600080fd5b506104bc611628565b6040518082815260200191505060405180910390f35b3480156104de57600080fd5b506104e761162e565b005b60095442101580156105085750600560009054906101000a900460ff16155b151561051357600080fd5b6006543411151561052057fe5b610528610f10565b6000600b60003373ffffffffffffffffffffffffffffffffffffffff1673ffffffffffffffffffffffffffffffffffffffff16815260200190815260200160002060000154111561069357600754600b60003373ffffffffffffffffffffffffffffffffffffffff1673ffffffffffffffffffffffffffffffffffffffff16815260200190815260200160002060010154016001541015156105cd576105cc61091f565b5b61068c61067b600b60003373ffffffffffffffffffffffffffffffffffffffff1673ffffffffffffffffffffffffffffffffffffffff1681526020019081526020016000206000015461066d600b60003373ffffffffffffffffffffffffffffffffffffffff1673ffffffffffffffffffffffffffffffffffffffff168152602001908152602001600020600101546001546116f890919063ffffffff16565b61171490919063ffffffff16565b6002546116f890919063ffffffff16565b6002819055505b6106a83460035461175290919063ffffffff16565b600381905550600154600b60003373ffffffffffffffffffffffffffffffffffffffff1673ffffffffffffffffffffffffffffffffffffffff1681526020019081526020016000206001018190555061074c34600b60003373ffffffffffffffffffffffffffffffffffffffff1673ffffffffffffffffffffffffffffffffffffffff1681526020019081526020016000206000015461175290919063ffffffff16565b600b60003373ffffffffffffffffffffffffffffffffffffffff1673ffffffffffffffffffffffffffffffffffffffff168152602001908152602001600020600001819055507f2e8514bf9ee8365a5f08ec338e0c2c303db06a14eb982783ef9a2b9aacec8dc63334600b60003373ffffffffffffffffffffffffffffffffffffffff1673ffffffffffffffffffffffffffffffffffffffff16815260200190815260200160002060000154600b60003373ffffffffffffffffffffffffffffffffffffffff1673ffffffffffffffffffffffffffffffffffffffff16815260200190815260200160002060010154604051808573ffffffffffffffffffffffffffffffffffffffff1673ffffffffffffffffffffffffffffffffffffffff16815260200184815260200183815260200182815260200194505050505060405180910390a1565b600560009054906101000a900460ff1681565b60025481565b60045481565b7fe669e18d16cf72448be9ee29e977628bedcffa0e0c0cde5e8448849fb94268573334604051808373ffffffffffffffffffffffffffffffffffffffff1673ffffffffffffffffffffffffffffffffffffffff1681526020018281526020019250505060405180910390a1565b6000806000806000600b60003373ffffffffffffffffffffffffffffffffffffffff1673ffffffffffffffffffffffffffffffffffffffff1681526020019081526020016000206000015411151561097657600080fd5b600560009054906101000a900460ff161561099057610c27565b610998610f10565b6109ef600b60003373ffffffffffffffffffffffffffffffffffffffff1673ffffffffffffffffffffffffffffffffffffffff168152602001908152602001600020600101546001546116f890919063ffffffff16565b935060075484101515610c2657610a1e60075460075486811515610a0f57fe5b0461171490919063ffffffff16565b9250610a75600b60003373ffffffffffffffffffffffffffffffffffffffff1673ffffffffffffffffffffffffffffffffffffffff168152602001908152602001600020600001548461171490919063ffffffff16565b9150610aa0600254610a928460045461171490919063ffffffff16565b61177390919063ffffffff16565b9050610ab7816004546116f890919063ffffffff16565b600481905550610ad2826002546116f890919063ffffffff16565b600281905550610b2d83600b60003373ffffffffffffffffffffffffffffffffffffffff1673ffffffffffffffffffffffffffffffffffffffff1681526020019081526020016000206001015461175290919063ffffffff16565b600b60003373ffffffffffffffffffffffffffffffffffffffff1673ffffffffffffffffffffffffffffffffffffffff168152602001908152602001600020600101819055503373ffffffffffffffffffffffffffffffffffffffff166108fc829081150290604051600060405180830381858888f19350505050158015610bb9573d6000803e3d6000fd5b507f47cee97cb7acd717b3c0aa1435d004cd5b3c8c57d70dbceb4e4458bbd60e39d43382604051808373ffffffffffffffffffffffffffffffffffffffff1673ffffffffffffffffffffffffffffffffffffffff1681526020018281526020019250505060405180910390a15b5b50505050565b600a60009054906101000a900473ffffffffffffffffffffffffffffffffffffffff1681565b60065481565b60075481565b600b6020528060005260406000206000915090508060000154908060010154905082565b60095481565b600080600b60003373ffffffffffffffffffffffffffffffffffffffff1673ffffffffffffffffffffffffffffffffffffffff16815260200190815260200160002060000154111515610cdb57600080fd5b6000600b60008473ffffffffffffffffffffffffffffffffffffffff1673ffffffffffffffffffffffffffffffffffffffff16815260200190815260200160002060000154111515610d2c57600080fd5b610d34610f10565b610d8b600854600b60008573ffffffffffffffffffffffffffffffffffffffff1673ffffffffffffffffffffffffffffffffffffffff1681526020019081526020016000206001015461175290919063ffffffff16565b600154111515610d9a57600080fd5b600b60008373ffffffffffffffffffffffffffffffffffffffff1673ffffffffffffffffffffffffffffffffffffffff168152602001908152602001600020600001549050610df4816003546116f890919063ffffffff16565b600381905550610e77610e6682610e58600b60008773ffffffffffffffffffffffffffffffffffffffff1673ffffffffffffffffffffffffffffffffffffffff168152602001908152602001600020600101546001546116f890919063ffffffff16565b61171490919063ffffffff16565b6002546116f890919063ffffffff16565b6002819055506000600b60008473ffffffffffffffffffffffffffffffffffffffff1673ffffffffffffffffffffffffffffffffffffffff168152602001908152602001600020600001819055508173ffffffffffffffffffffffffffffffffffffffff166108fc829081150290604051600060405180830381858888f19350505050158015610f0b573d6000803e3d6000fd5b505050565b60008060008054431115610fbc57600054925043600081905550610f5834600354013073ffffffffffffffffffffffffffffffffffffffff16316116f890919063ffffffff16565b600481905550600154421115610fbb5782430391506001544203905060198202811115610f86576019820290505b610f9b6003548261171490919063ffffffff16565b600260008282540192505081905550806001600082825401925050819055505b5b505050565b60035481565b60005481565b600a60009054906101000a900473ffffffffffffffffffffffffffffffffffffffff1673ffffffffffffffffffffffffffffffffffffffff163373ffffffffffffffffffffffffffffffffffffffff1614151561102957600080fd5b80600560006101000a81548160ff02191690831515021790555050565b600080600080600080600080600080600b60008c73ffffffffffffffffffffffffffffffffffffffff1673ffffffffffffffffffffffffffffffffffffffff168152602001908152602001600020600001541115156110a457600080fd5b600560009054906101000a900460ff161515156110c057600080fd5b6000544303975060015442039650601988028711156110e0576019880296505b866001540195506110fc6003548861171490919063ffffffff16565b600254019450611157600b60008c73ffffffffffffffffffffffffffffffffffffffff1673ffffffffffffffffffffffffffffffffffffffff16815260200190815260200160002060010154876116f890919063ffffffff16565b935061117b6007546007548681151561116c57fe5b0461171490919063ffffffff16565b92506111d2600b60008c73ffffffffffffffffffffffffffffffffffffffff1673ffffffffffffffffffffffffffffffffffffffff168152602001908152602001600020600001548461171490919063ffffffff16565b91506112006003543073ffffffffffffffffffffffffffffffffffffffff16316116f890919063ffffffff16565b905061122785611219848461171490919063ffffffff16565b61177390919063ffffffff16565b98505050505050505050919050565b600a60009054906101000a900473ffffffffffffffffffffffffffffffffffffffff1673ffffffffffffffffffffffffffffffffffffffff163373ffffffffffffffffffffffffffffffffffffffff1614151561129257600080fd5b600560009054906101000a900460ff1615611345576112d36003543073ffffffffffffffffffffffffffffffffffffffff16316116f890919063ffffffff16565b600481905550600a60009054906101000a900473ffffffffffffffffffffffffffffffffffffffff1673ffffffffffffffffffffffffffffffffffffffff166108fc6004549081150290604051600060405180830381858888f19350505050158015611343573d6000803e3d6000fd5b505b565b600080600b60003373ffffffffffffffffffffffffffffffffffffffff1673ffffffffffffffffffffffffffffffffffffffff1681526020019081526020016000206000015411151561139957600080fd5b6113a1610f10565b600754600b60003373ffffffffffffffffffffffffffffffffffffffff1673ffffffffffffffffffffffffffffffffffffffff1681526020019081526020016000206001015401600154101515156113f857600080fd5b600b60003373ffffffffffffffffffffffffffffffffffffffff1673ffffffffffffffffffffffffffffffffffffffff16815260200190815260200160002060000154905061144561091f565b61145a816003546116f890919063ffffffff16565b60038190555061151f61150e600b60003373ffffffffffffffffffffffffffffffffffffffff1673ffffffffffffffffffffffffffffffffffffffff16815260200190815260200160002060000154611500600b60003373ffffffffffffffffffffffffffffffffffffffff1673ffffffffffffffffffffffffffffffffffffffff168152602001908152602001600020600101546001546116f890919063ffffffff16565b61171490919063ffffffff16565b6002546116f890919063ffffffff16565b6002819055506000600b60003373ffffffffffffffffffffffffffffffffffffffff1673ffffffffffffffffffffffffffffffffffffffff168152602001908152602001600020600001819055503373ffffffffffffffffffffffffffffffffffffffff166108fc829081150290604051600060405180830381858888f193505050501580156115b3573d6000803e3d6000fd5b507f141ef67c4a6d3ec2adfb2f66d33c2b11de5b4f34344757554d430570b18a92ec3382604051808373ffffffffffffffffffffffffffffffffffffffff1673ffffffffffffffffffffffffffffffffffffffff1681526020018281526020019250505060405180910390a150565b60085481565b60015481565b600a60009054906101000a900473ffffffffffffffffffffffffffffffffffffffff1673ffffffffffffffffffffffffffffffffffffffff163373ffffffffffffffffffffffffffffffffffffffff1614151561168a57600080fd5b621b7740431180156116a95750600560009054906101000a900460ff16155b15156116b457600080fd5b6000600a60006101000a81548173ffffffffffffffffffffffffffffffffffffffff021916908373ffffffffffffffffffffffffffffffffffffffff160217905550565b600082821115151561170957600080fd5b818303905092915050565b6000806000841415611729576000915061174b565b828402905082848281151561173a57fe5b0414151561174757600080fd5b8091505b5092915050565b600080828401905083811015151561176957600080fd5b8091505092915050565b600080828481151561178157fe5b04905080915050929150505600a165627a7a723058209bf4cb22bb1c7e1d37c25093e267cb96d1312c422eb9357b6d2976fea3e506130029",
  "source": "pragma solidity ^0.4.24;\r\n\r\n/**\r\n * @title SafeMath\r\n * @dev Math operations with safety checks that throw on error\r\n */\r\nlibrary SafeMath {\r\n  function mul(uint a, uint b) internal pure returns (uint) {\r\n    if (a == 0) {\r\n      return 0;\r\n    }\r\n    uint c = a * b;\r\n    require(c / a == b);\r\n    return c;\r\n  }\r\n  function div(uint a, uint b) internal pure returns (uint) {\r\n    // assert(b > 0); // Solidity automatically throws when dividing by 0\r\n    uint c = a / b;\r\n    // assert(a == b * c + a % b); // There is no case in which this doesn't hold\r\n    return c;\r\n  }\r\n\r\n  function sub(uint a, uint b) internal pure returns (uint) {\r\n    require(b <= a);\r\n    return a - b;\r\n  }\r\n\r\n  function add(uint a, uint b) internal pure returns (uint) {\r\n    uint c = a + b;\r\n    require(c >= a);\r\n    return c;\r\n  }\r\n}\r\n\r\ncontract ColdStaking {\r\n    \r\n    // NOTE: The contract only works for intervals of time > round_interval\r\n\r\n    using SafeMath for uint;\r\n\r\n    event StartStaking(address addr, uint value, uint amount, uint time);\r\n    event WithdrawStake(address staker, uint amount);\r\n    event Claim(address staker, uint reward);\r\n    event DonationDeposited(address _address, uint value);\r\n\r\n    struct Staker\r\n    {\r\n        uint amount;\r\n        uint time;\r\n    }\r\n\r\n\r\n    uint public LastBlock = block.number;\r\n    uint public Timestamp = now;    //timestamp of the last interaction with the contract.\r\n\r\n    uint public TotalStakingWeight; //total weight = sum (each_staking_amount * each_staking_time).\r\n    uint public TotalStakingAmount; //currently frozen amount for Staking.\r\n    uint public StakingRewardPool;  //available amount for paying rewards.\r\n    bool public CS_frozen;          //Cold Staking frozen.\r\n    uint public staking_threshold = 0 ether;\r\n    \r\n    //uint public round_interval   = 27 days;     // 1 month.\r\n    //uint public max_delay        = 365 * 2 days;// 2 years.\r\n    //uint public DateStartStaking = 1541980800;  // 12.11.2018 0:0:0 UTC.\r\n    //address public Treasury       = 0x3c06f218ce6dd8e2c535a8925a2edf81674984d9; // Callisto Staking Reserve address.\r\n\r\n    /*========== TESTING VALUES ===========*/\r\n    uint public round_interval = 1 hours; // 1 hours.\r\n    uint public max_delay = 7 days; // 7 days.\r\n    uint public DateStartStaking = 1540135800;  // 10/21/2018 @ 3:30pm (UTC)\r\n    address public Treasury       = 0x627306090abaB3A6e1400e9345bC60c78a8BEf57; // Callisto Staking Reserve address.\r\n    /*========== end testing values ===================*/\r\n    \r\n    mapping(address => Staker) public staker;\r\n\r\n    function freeze(bool _f) public only_treasurer\r\n    {\r\n        CS_frozen = _f;\r\n    }\r\n\r\n    function withdraw_rewards () public only_treasurer\r\n    {\r\n        if (CS_frozen)\r\n        {\r\n            StakingRewardPool = address(this).balance.sub(TotalStakingAmount);\r\n            Treasury.transfer(StakingRewardPool);\r\n        }\r\n    }\r\n\r\n    function clear_treasurer () public only_treasurer\r\n    {\r\n        require(block.number > 1800000 && !CS_frozen);\r\n        Treasury = 0x00;\r\n    }\r\n\t\r\n    function() public payable\r\n    {\r\n        // No donations accepted to fallback!\r\n        // Consider value deposit is an attempt to become staker.\r\n        // May not accept deposit from other contracts due GAS limit.\r\n        start_staking();\r\n    }\r\n\r\n    // this function can be called for manualy update TotalStakingAmount value.\r\n    function new_block() public\r\n    {\r\n        if (block.number > LastBlock)   //run once per block.\r\n        {\r\n            uint _LastBlock = LastBlock;\r\n            LastBlock = block.number;\r\n\r\n            StakingRewardPool = address(this).balance.sub(TotalStakingAmount + msg.value);   //fix rewards pool for this block.\r\n            // msg.value here for case new_block() is calling from start_staking(), and msg.value will be added to CurrentBlockDeposits.\r\n\r\n            //The consensus protocol enforces block timestamps are always atleast +1 from their parent, so a node cannot \"lie into the past\". \r\n            if (now > Timestamp) //But with this condition I feel safer :) May be removed.\r\n            {\r\n                uint _blocks = block.number - _LastBlock;\r\n                uint _seconds = now - Timestamp;\r\n                if (_seconds > _blocks * 25) //if time goes far in the future, then use new time as 25 second * blocks.\r\n                {\r\n                    _seconds = _blocks * 25;\r\n                }\r\n                TotalStakingWeight += _seconds.mul(TotalStakingAmount);\r\n                Timestamp += _seconds;\r\n            }\r\n        }\r\n    }\r\n\r\n    function start_staking() public staking_available payable\r\n    {\r\n        assert(msg.value > staking_threshold);\r\n        new_block(); //run once per block.\r\n        \r\n        // claim reward if available.\r\n        if (staker[msg.sender].amount > 0)\r\n        {\r\n            if (Timestamp >= staker[msg.sender].time + round_interval)\r\n            { \r\n                claim(); \r\n            }\r\n            TotalStakingWeight = TotalStakingWeight.sub((Timestamp.sub(staker[msg.sender].time)).mul(staker[msg.sender].amount)); // remove from Weight        \r\n        }\r\n\r\n        TotalStakingAmount = TotalStakingAmount.add(msg.value);\r\n        staker[msg.sender].time = Timestamp;\r\n        staker[msg.sender].amount = staker[msg.sender].amount.add(msg.value);\r\n       \r\n        emit StartStaking(\r\n            msg.sender,\r\n            msg.value,\r\n            staker[msg.sender].amount,\r\n            staker[msg.sender].time\r\n        );\r\n    }\r\n\r\n    function DEBUG_donation() public payable {\r\n        emit DonationDeposited(msg.sender, msg.value);\r\n    }\r\n\r\n    function withdraw_stake() public only_staker\r\n    {\r\n        new_block(); //run once per block.\r\n        require(Timestamp >= staker[msg.sender].time + round_interval); //reject withdrawal before complete round.\r\n\r\n        uint _amount = staker[msg.sender].amount;\r\n        // claim reward if available.\r\n        claim(); \r\n        TotalStakingAmount = TotalStakingAmount.sub(_amount);\r\n        TotalStakingWeight = TotalStakingWeight.sub((Timestamp.sub(staker[msg.sender].time)).mul(staker[msg.sender].amount)); // remove from Weight.\r\n        \r\n        staker[msg.sender].amount = 0;\r\n        msg.sender.transfer(_amount);\r\n        emit WithdrawStake(msg.sender, _amount);\r\n    }\r\n\r\n    //claim rewards\r\n    function claim() public only_staker\r\n    {\r\n        if (CS_frozen) return; //Don't pay rewards when Cold Staking frozen.\r\n\r\n        new_block(); //run once per block\r\n        uint _StakingInterval = Timestamp.sub(staker[msg.sender].time);  //time interval of deposit.\r\n        if (_StakingInterval >= round_interval)\r\n        {\r\n            uint _CompleteRoundsInterval = (_StakingInterval / round_interval).mul(round_interval); //only complete rounds.\r\n            uint _StakerWeight = _CompleteRoundsInterval.mul(staker[msg.sender].amount); //Weight of completed rounds.\r\n            uint _reward = StakingRewardPool.mul(_StakerWeight).div(TotalStakingWeight);  //StakingRewardPool * _StakerWeight/TotalStakingWeight\r\n\r\n            StakingRewardPool = StakingRewardPool.sub(_reward);\r\n            TotalStakingWeight = TotalStakingWeight.sub(_StakerWeight); // remove paid Weight.\r\n\r\n            staker[msg.sender].time = staker[msg.sender].time.add(_CompleteRoundsInterval); // reset to paid time, staking continue wthout lose uncomplete ruonds.\r\n\t    \r\n            msg.sender.transfer(_reward);\r\n            emit Claim(msg.sender, _reward);\r\n        }\r\n    }\r\n\r\n    //This function may be used for info only. This can show estimated user reward at current time.\r\n    function stake_reward(address _addr) public constant returns (uint)\r\n    {\r\n        require(staker[_addr].amount > 0);\r\n        require(!CS_frozen);\r\n\r\n        uint _blocks = block.number - LastBlock;\r\n        uint _seconds = now - Timestamp;\r\n        if (_seconds > _blocks * 25) //if time goes far in the future, then use new time as 25 second * blocks.\r\n        {\r\n            _seconds = _blocks * 25;\r\n        }\r\n        uint _Timestamp = Timestamp + _seconds;\r\n        uint _TotalStakingWeight = TotalStakingWeight + _seconds.mul(TotalStakingAmount);\r\n        uint _StakingInterval = _Timestamp.sub(staker[_addr].time); //time interval of deposit.\r\n\t\r\n        //uint _StakerWeight = _StakingInterval.mul(staker[_addr].amount); //Staker weight.\r\n        uint _CompleteRoundsInterval = (_StakingInterval / round_interval).mul(round_interval); //only complete rounds.\r\n        uint _StakerWeight = _CompleteRoundsInterval.mul(staker[_addr].amount); //Weight of completed rounds.\r\n        uint _StakingRewardPool = address(this).balance.sub(TotalStakingAmount);\r\n        return _StakingRewardPool.mul(_StakerWeight).div(_TotalStakingWeight);    //StakingRewardPool * _StakerWeight/TotalStakingWeight\r\n    }\r\n\r\n    modifier only_staker\r\n    {\r\n        require(staker[msg.sender].amount > 0);\r\n        _;\r\n    }\r\n\r\n    modifier staking_available\r\n    {\r\n        require(now >= DateStartStaking && !CS_frozen);\r\n        _;\r\n    }\r\n\r\n    modifier only_treasurer\r\n    {\r\n        require(msg.sender == Treasury);\r\n        _;\r\n    }\r\n\r\n    //return deposit to inactive staker.\r\n    function report_abuse(address _addr) public only_staker\r\n    {\r\n        require(staker[_addr].amount > 0);\r\n        new_block(); //run once per block.\r\n        require(Timestamp > staker[_addr].time.add(max_delay));\r\n        \r\n        uint _amount = staker[_addr].amount;\r\n        \r\n        TotalStakingAmount = TotalStakingAmount.sub(_amount);\r\n        TotalStakingWeight = TotalStakingWeight.sub((Timestamp.sub(staker[_addr].time)).mul(_amount)); // remove from Weight.\r\n\r\n        staker[_addr].amount = 0;\r\n        _addr.transfer(_amount);\r\n    }\r\n}\r\n",
  "sourcePath": "D:\\workspace\\ethereum\\Cold-staking\\contracts\\ColdStaking.sol",
  "compiler": {
    "name": "solc",
    "version": "0.4.24+commit.e67f0147.Emscripten.clang"
  },
  "schemaVersion": "2.0.1",
  "updatedAt": "2018-10-21T18:38:34.389Z"
}